{
  "contractName": "Date",
  "abi": [
    {
      "inputs": [],
      "stateMutability": "nonpayable",
      "type": "constructor"
    },
    {
      "anonymous": false,
      "inputs": [
        {
          "indexed": true,
          "internalType": "address",
          "name": "owner",
          "type": "address"
        },
        {
          "indexed": true,
          "internalType": "address",
          "name": "approved",
          "type": "address"
        },
        {
          "indexed": true,
          "internalType": "uint256",
          "name": "tokenId",
          "type": "uint256"
        }
      ],
      "name": "Approval",
      "type": "event"
    },
    {
      "anonymous": false,
      "inputs": [
        {
          "indexed": true,
          "internalType": "address",
          "name": "owner",
          "type": "address"
        },
        {
          "indexed": true,
          "internalType": "address",
          "name": "operator",
          "type": "address"
        },
        {
          "indexed": false,
          "internalType": "bool",
          "name": "approved",
          "type": "bool"
        }
      ],
      "name": "ApprovalForAll",
      "type": "event"
    },
    {
      "anonymous": false,
      "inputs": [
        {
          "indexed": true,
          "internalType": "address",
          "name": "previousOwner",
          "type": "address"
        },
        {
          "indexed": true,
          "internalType": "address",
          "name": "newOwner",
          "type": "address"
        }
      ],
      "name": "OwnershipTransferred",
      "type": "event"
    },
    {
      "anonymous": false,
      "inputs": [
        {
          "indexed": true,
          "internalType": "address",
          "name": "from",
          "type": "address"
        },
        {
          "indexed": true,
          "internalType": "address",
          "name": "to",
          "type": "address"
        },
        {
          "indexed": true,
          "internalType": "uint256",
          "name": "tokenId",
          "type": "uint256"
        }
      ],
      "name": "Transfer",
      "type": "event"
    },
    {
      "inputs": [
        {
          "internalType": "address",
          "name": "to",
          "type": "address"
        },
        {
          "internalType": "uint256",
          "name": "tokenId",
          "type": "uint256"
        }
      ],
      "name": "approve",
      "outputs": [],
      "stateMutability": "nonpayable",
      "type": "function"
    },
    {
      "inputs": [
        {
          "internalType": "address",
          "name": "owner",
          "type": "address"
        }
      ],
      "name": "balanceOf",
      "outputs": [
        {
          "internalType": "uint256",
          "name": "",
          "type": "uint256"
        }
      ],
      "stateMutability": "view",
      "type": "function",
      "constant": true
    },
    {
      "inputs": [
        {
          "internalType": "uint256",
          "name": "tokenId",
          "type": "uint256"
        }
      ],
      "name": "getApproved",
      "outputs": [
        {
          "internalType": "address",
          "name": "",
          "type": "address"
        }
      ],
      "stateMutability": "view",
      "type": "function",
      "constant": true
    },
    {
      "inputs": [
        {
          "internalType": "address",
          "name": "owner",
          "type": "address"
        },
        {
          "internalType": "address",
          "name": "operator",
          "type": "address"
        }
      ],
      "name": "isApprovedForAll",
      "outputs": [
        {
          "internalType": "bool",
          "name": "",
          "type": "bool"
        }
      ],
      "stateMutability": "view",
      "type": "function",
      "constant": true
    },
    {
      "inputs": [],
      "name": "name",
      "outputs": [
        {
          "internalType": "string",
          "name": "",
          "type": "string"
        }
      ],
      "stateMutability": "view",
      "type": "function",
      "constant": true
    },
    {
      "inputs": [],
      "name": "owner",
      "outputs": [
        {
          "internalType": "address",
          "name": "",
          "type": "address"
        }
      ],
      "stateMutability": "view",
      "type": "function",
      "constant": true
    },
    {
      "inputs": [],
      "name": "renounceOwnership",
      "outputs": [],
      "stateMutability": "nonpayable",
      "type": "function"
    },
    {
      "inputs": [
        {
          "internalType": "address",
          "name": "from",
          "type": "address"
        },
        {
          "internalType": "address",
          "name": "to",
          "type": "address"
        },
        {
          "internalType": "uint256",
          "name": "tokenId",
          "type": "uint256"
        }
      ],
      "name": "safeTransferFrom",
      "outputs": [],
      "stateMutability": "nonpayable",
      "type": "function"
    },
    {
      "inputs": [
        {
          "internalType": "address",
          "name": "from",
          "type": "address"
        },
        {
          "internalType": "address",
          "name": "to",
          "type": "address"
        },
        {
          "internalType": "uint256",
          "name": "tokenId",
          "type": "uint256"
        },
        {
          "internalType": "bytes",
          "name": "_data",
          "type": "bytes"
        }
      ],
      "name": "safeTransferFrom",
      "outputs": [],
      "stateMutability": "nonpayable",
      "type": "function"
    },
    {
      "inputs": [
        {
          "internalType": "address",
          "name": "operator",
          "type": "address"
        },
        {
          "internalType": "bool",
          "name": "approved",
          "type": "bool"
        }
      ],
      "name": "setApprovalForAll",
      "outputs": [],
      "stateMutability": "nonpayable",
      "type": "function"
    },
    {
      "inputs": [
        {
          "internalType": "bytes4",
          "name": "interfaceId",
          "type": "bytes4"
        }
      ],
      "name": "supportsInterface",
      "outputs": [
        {
          "internalType": "bool",
          "name": "",
          "type": "bool"
        }
      ],
      "stateMutability": "view",
      "type": "function",
      "constant": true
    },
    {
      "inputs": [],
      "name": "symbol",
      "outputs": [
        {
          "internalType": "string",
          "name": "",
          "type": "string"
        }
      ],
      "stateMutability": "view",
      "type": "function",
      "constant": true
    },
    {
      "inputs": [
        {
          "internalType": "uint256",
          "name": "tokenId",
          "type": "uint256"
        }
      ],
      "name": "tokenURI",
      "outputs": [
        {
          "internalType": "string",
          "name": "",
          "type": "string"
        }
      ],
      "stateMutability": "view",
      "type": "function",
      "constant": true
    },
    {
      "inputs": [
        {
          "internalType": "address",
          "name": "from",
          "type": "address"
        },
        {
          "internalType": "address",
          "name": "to",
          "type": "address"
        },
        {
          "internalType": "uint256",
          "name": "tokenId",
          "type": "uint256"
        }
      ],
      "name": "transferFrom",
      "outputs": [],
      "stateMutability": "nonpayable",
      "type": "function"
    },
    {
      "inputs": [
        {
          "internalType": "address",
          "name": "newOwner",
          "type": "address"
        }
      ],
      "name": "transferOwnership",
      "outputs": [],
      "stateMutability": "nonpayable",
      "type": "function"
    },
    {
      "inputs": [
        {
          "internalType": "string",
          "name": "baseURI",
          "type": "string"
        }
      ],
      "name": "setBaseURI",
      "outputs": [],
      "stateMutability": "nonpayable",
      "type": "function"
    },
    {
      "inputs": [
        {
          "internalType": "uint16",
          "name": "year",
          "type": "uint16"
        },
        {
          "internalType": "uint8",
          "name": "month",
          "type": "uint8"
        },
        {
          "internalType": "uint8",
          "name": "day",
          "type": "uint8"
        },
        {
          "internalType": "string",
          "name": "title",
          "type": "string"
        }
      ],
      "name": "claim",
      "outputs": [],
      "stateMutability": "payable",
      "type": "function",
      "payable": true
    },
    {
      "inputs": [
        {
          "internalType": "uint16",
          "name": "year",
          "type": "uint16"
        },
        {
          "internalType": "uint8",
          "name": "month",
          "type": "uint8"
        },
        {
          "internalType": "uint8",
          "name": "day",
          "type": "uint8"
        }
      ],
      "name": "ownerOf",
      "outputs": [
        {
          "internalType": "address",
          "name": "",
          "type": "address"
        }
      ],
      "stateMutability": "view",
      "type": "function",
      "constant": true
    },
    {
      "inputs": [
        {
          "internalType": "uint256",
          "name": "tokenId",
          "type": "uint256"
        }
      ],
      "name": "ownerOf",
      "outputs": [
        {
          "internalType": "address",
          "name": "",
          "type": "address"
        }
      ],
      "stateMutability": "view",
      "type": "function",
      "constant": true
    },
    {
      "inputs": [
        {
          "internalType": "uint256",
          "name": "tokenId",
          "type": "uint256"
        }
      ],
      "name": "get",
      "outputs": [
        {
          "internalType": "uint16",
          "name": "year",
          "type": "uint16"
        },
        {
          "internalType": "uint8",
          "name": "month",
          "type": "uint8"
        },
        {
          "internalType": "uint8",
          "name": "day",
          "type": "uint8"
        },
        {
          "internalType": "uint8",
          "name": "color",
          "type": "uint8"
        },
        {
          "internalType": "string",
          "name": "title",
          "type": "string"
        }
      ],
      "stateMutability": "view",
      "type": "function",
      "constant": true
    },
    {
      "inputs": [
        {
          "internalType": "uint16",
          "name": "year",
          "type": "uint16"
        },
        {
          "internalType": "uint8",
          "name": "month",
          "type": "uint8"
        },
        {
          "internalType": "uint8",
          "name": "day",
          "type": "uint8"
        }
      ],
      "name": "titleOf",
      "outputs": [
        {
          "internalType": "string",
          "name": "",
          "type": "string"
        }
      ],
      "stateMutability": "view",
      "type": "function",
      "constant": true
    },
    {
      "inputs": [
        {
          "internalType": "uint256",
          "name": "tokenId",
          "type": "uint256"
        }
      ],
      "name": "titleOf",
      "outputs": [
        {
          "internalType": "string",
          "name": "",
          "type": "string"
        }
      ],
      "stateMutability": "view",
      "type": "function",
      "constant": true
    },
    {
      "inputs": [
        {
          "internalType": "uint16",
          "name": "year",
          "type": "uint16"
        },
        {
          "internalType": "uint8",
          "name": "month",
          "type": "uint8"
        },
        {
          "internalType": "uint8",
          "name": "day",
          "type": "uint8"
        },
        {
          "internalType": "string",
          "name": "title",
          "type": "string"
        }
      ],
      "name": "changeTitleOf",
      "outputs": [],
      "stateMutability": "nonpayable",
      "type": "function"
    },
    {
      "inputs": [
        {
          "internalType": "uint256",
          "name": "tokenId",
          "type": "uint256"
        },
        {
          "internalType": "string",
          "name": "title",
          "type": "string"
        }
      ],
      "name": "changeTitleOf",
      "outputs": [],
      "stateMutability": "nonpayable",
      "type": "function"
    },
    {
      "inputs": [
        {
          "internalType": "uint16",
          "name": "year",
          "type": "uint16"
        }
      ],
      "name": "isLeapYear",
      "outputs": [
        {
          "internalType": "bool",
          "name": "",
          "type": "bool"
        }
      ],
      "stateMutability": "pure",
      "type": "function",
      "constant": true
    },
    {
      "inputs": [
        {
          "internalType": "uint8",
          "name": "month",
          "type": "uint8"
        },
        {
          "internalType": "uint16",
          "name": "year",
          "type": "uint16"
        }
      ],
      "name": "numDaysInMonth",
      "outputs": [
        {
          "internalType": "uint8",
          "name": "",
          "type": "uint8"
        }
      ],
      "stateMutability": "pure",
      "type": "function",
      "constant": true
    },
    {
      "inputs": [
        {
          "internalType": "uint256",
          "name": "timestamp",
          "type": "uint256"
        }
      ],
      "name": "timestampToDate",
      "outputs": [
        {
          "internalType": "uint16",
          "name": "year",
          "type": "uint16"
        },
        {
          "internalType": "uint8",
          "name": "month",
          "type": "uint8"
        },
        {
          "internalType": "uint8",
          "name": "day",
          "type": "uint8"
        }
      ],
      "stateMutability": "pure",
      "type": "function",
      "constant": true
    }
  ],
  "bytecode": "0x60806040523480156200001157600080fd5b506040518060400160405280600481526020017f44617465000000000000000000000000000000000000000000000000000000008152506040518060400160405280600481526020017f44415445000000000000000000000000000000000000000000000000000000008152506200009862000092620003e460201b60201c565b620003e8565b8151620000ad90600190602085019062000eb3565b508051620000c390600290602084019062000eb3565b505060408051808201909152601781527f687474703a2f2f6c6f63616c686f73742f746f6b656e2f000000000000000000602082015262000105915062000438565b62000152600180600160046040518060400160405280600681526020017f4f524947494e0000000000000000000000000000000000000000000000000000815250620004cb60201b60201c565b600080806200016142620005a7565b925092509250620001b283838360046040518060400160405280601081526020017f4461746520546f6b656e20537461727400000000000000000000000000000000815250620004cb60201b60201c565b620002016107806008601a60066040518060400160405280601d81526020017f41626f75742074696d6520776f6d656e20676f7420746f20766f746521000000815250620004cb60201b60201c565b620002506107d5600a601d60056040518060400160405280601181526020017f416c6c2063617473207265756e69746521000000000000000000000000000000815250620004cb60201b60201c565b6200029f6107cf600b600f60016040518060400160405280601781526020017f596f7572206e656f706574206973206479696e672e2e2e000000000000000000815250620004cb60201b60201c565b620002ee6107d56004601760026040518060400160405280600d81526020017f4d6520617420746865207a6f6f00000000000000000000000000000000000000815250620004cb60201b60201c565b6200033d6107b16007601460036040518060400160405280601681526020017f4f6e6520736d616c6c207374657020666f72206d616e00000000000000000000815250620004cb60201b60201c565b6200038c6107b96007600f60006040518060400160405280600f81526020017f49204c6f7665204e657720596f726b0000000000000000000000000000000000815250620004cb60201b60201c565b620003db61076f600c601160076040518060400160405280600f81526020017f4f666620746f2074686520736b79210000000000000000000000000000000000815250620004cb60201b60201c565b50505062001165565b3390565b600080546001600160a01b038381166001600160a01b0319831681178455604051919092169283917f8be0079c531659141344cd1fd0a4f28419497f9722a3daafe3b4186f6b6457e09190a35050565b6000546001600160a01b03163314620004b2576040517f08c379a000000000000000000000000000000000000000000000000000000000815260206004820181905260248201527f4f776e61626c653a2063616c6c6572206973206e6f7420746865206f776e657260448201526064015b60405180910390fd5b8051620004c790600890602084019062000eb3565b5050565b6000620004da8686866200079a565b6040805160a08101825261ffff808a16825260ff808a1660208085019182528a83168587019081528a841660608701908152608087018b815260008a815260078552989098208751815495519351925187166401000000000260ff60201b199388166301000000029390931664ffff0000001994909716620100000262ffffff1990961697169690961793909317169290921717825592518051949550919390926200058e92600185019291019062000eb3565b506200059f9150339050826200083c565b505050505050565b6000808080620005bb620151808662000fb7565b620005ca90620afa6c62000fce565b90506000620005dd62023ab18362000fb7565b90506000620005f08262023ab162001003565b620005fc908462000fe9565b9050600061016d6200061262023ab08462000fb7565b62000620618eac8562000fb7565b6200062e6105b48662000fb7565b6200063a908662000fe9565b62000646919062000fce565b62000652919062000fe9565b6200065e919062000fb7565b905060006200066f60648362000fb7565b6200067c60048462000fb7565b6200068a8461016d62001003565b62000696919062000fce565b620006a2919062000fe9565b620006ae908462000fe9565b905060006099620006c183600562001003565b620006ce90600262000fce565b620006da919062000fb7565b90506005620006eb82609962001003565b620006f890600262000fce565b62000704919062000fb7565b62000710908362000fe9565b6200071d90600162000fce565b9650600a81106200073b576200073560098262000fe9565b62000748565b6200074881600362000fce565b975060028860ff1611156200075f57600062000762565b60015b60ff16620007738661019062001003565b6200077f908562000fce565b6200078b919062000fce565b98505050505050509193909250565b60008160ff16600111158015620007c25750620007b883856200085e565b60ff168260ff1611155b620007cc57600080fd5b60018260ff1660018560ff16620007e4919062000fe9565b620007f190601f62001003565b62000802600161ffff891662000fe9565b620008109061017462001003565b6200081c919062000fce565b62000828919062000fce565b62000834919062000fe9565b949350505050565b620004c7828260405180602001604052806000815250620009fc60201b60201c565b60008260ff16600111158015620008795750600c8360ff1611155b620008e1576040517f08c379a000000000000000000000000000000000000000000000000000000000815260206004820152601e60248201527f6d6f6e7468206d757374206265206265747765656e203120616e6420313200006044820152606401620004a9565b8161ffff166001111562000952576040517f08c379a000000000000000000000000000000000000000000000000000000000815260206004820152601e60248201527f79656172206d75737420626520626967676572206f7220657175616c203100006044820152606401620004a9565b8260ff16600114806200096857508260ff166003145b806200097757508260ff166005145b806200098657508260ff166007145b806200099557508260ff166008145b80620009a457508260ff16600a145b80620009b357508260ff16600c145b15620009c25750601f620009f6565b8260ff1660021415620009f257620009da8262000a99565b620009e757601c620009ea565b601d5b9050620009f6565b50601e5b92915050565b62000a08838362000b5a565b62000a17600084848462000cd6565b62000a94576040517f08c379a0000000000000000000000000000000000000000000000000000000008152602060048201526032602482015260008051602062003aaa83398151915260448201527f63656976657220696d706c656d656e74657200000000000000000000000000006064820152608401620004a9565b505050565b60008161ffff166001111562000b0c576040517f08c379a000000000000000000000000000000000000000000000000000000000815260206004820152601e60248201527f79656172206d75737420626520626967676572206f7220657175616c203100006044820152606401620004a9565b62000b1960048362001025565b61ffff1615801562000b39575062000b3360648362001025565b61ffff16155b8015620009f6575062000b4f6101908362001025565b61ffff161592915050565b6001600160a01b03821662000bcc576040517f08c379a000000000000000000000000000000000000000000000000000000000815260206004820181905260248201527f4552433732313a206d696e7420746f20746865207a65726f20616464726573736044820152606401620004a9565b6000818152600360205260409020546001600160a01b03161562000c4d576040517f08c379a000000000000000000000000000000000000000000000000000000000815260206004820152601c60248201527f4552433732313a20746f6b656e20616c7265616479206d696e746564000000006044820152606401620004a9565b6001600160a01b038216600090815260046020526040812080546001929062000c7890849062000fce565b909155505060008181526003602052604080822080546001600160a01b0319166001600160a01b03861690811790915590518392907fddf252ad1be2c89b69c2b068fc378daa952ba7f163c4a11628f55a4df523b3ef908290a45050565b600062000cf7846001600160a01b031662000ead60201b6200173e1760201c565b1562000ea2576040517f150b7a020000000000000000000000000000000000000000000000000000000081526001600160a01b0385169063150b7a029062000d4a90339089908890889060040162001049565b602060405180830381600087803b15801562000d6557600080fd5b505af192505050801562000d98575060408051601f3d908101601f1916820190925262000d9591810190620010c4565b60015b62000e56573d80801562000dc9576040519150601f19603f3d011682016040523d82523d6000602084013e62000dce565b606091505b50805162000e4e576040517f08c379a0000000000000000000000000000000000000000000000000000000008152602060048201526032602482015260008051602062003aaa83398151915260448201527f63656976657220696d706c656d656e74657200000000000000000000000000006064820152608401620004a9565b805181602001fd5b7fffffffff00000000000000000000000000000000000000000000000000000000167f150b7a020000000000000000000000000000000000000000000000000000000014905062000834565b506001949350505050565b3b151590565b82805462000ec1906200110f565b90600052602060002090601f01602090048101928262000ee5576000855562000f30565b82601f1062000f0057805160ff191683800117855562000f30565b8280016001018555821562000f30579182015b8281111562000f3057825182559160200191906001019062000f13565b5062000f3e92915062000f42565b5090565b5b8082111562000f3e576000815560010162000f43565b7f4e487b7100000000000000000000000000000000000000000000000000000000600052601260045260246000fd5b7f4e487b7100000000000000000000000000000000000000000000000000000000600052601160045260246000fd5b60008262000fc95762000fc962000f59565b500490565b6000821982111562000fe45762000fe462000f88565b500190565b60008282101562000ffe5762000ffe62000f88565b500390565b600081600019048311821515161562001020576200102062000f88565b500290565b600061ffff808416806200103d576200103d62000f59565b92169190910692915050565b600060018060a01b038087168352602081871681850152856040850152608060608501528451915081608085015260005b82811015620010985785810182015185820160a0015281016200107a565b82811115620010ab57600060a084870101525b5050601f01601f19169190910160a00195945050505050565b600060208284031215620010d757600080fd5b81517fffffffff00000000000000000000000000000000000000000000000000000000811681146200110857600080fd5b9392505050565b600181811c908216806200112457607f821691505b602082108114156200115f577f4e487b7100000000000000000000000000000000000000000000000000000000600052602260045260246000fd5b50919050565b61293580620011756000396000f3fe60806040526004361061019c5760003560e01c8063715018a6116100ec578063b3a083fa1161008a578063daf7c16611610064578063daf7c166146104be578063de5101af146104de578063e985e9c514610522578063f2fde38b1461056b57600080fd5b8063b3a083fa1461045e578063b88d4fde1461047e578063c87b56dd1461049e57600080fd5b806395d89b41116100c657806395d89b41146103e9578063a22cb465146103fe578063a6f0e5771461041e578063a8c243301461043e57600080fd5b8063715018a6146103855780638da5cb5b1461039a5780639507d39a146103b857600080fd5b806339eac6ab1161015957806355f804b31161013357806355f804b3146103045780635b6f29b7146103245780636352211e1461033757806370a082311461035757600080fd5b806339eac6ab1461029257806342842e0e146102b25780635333f08f146102d257600080fd5b806301ffc9a7146101a157806306fdde03146101d6578063081812fc146101f8578063095ea7b314610230578063232f8ecc1461025257806323b872dd14610272575b600080fd5b3480156101ad57600080fd5b506101c16101bc3660046120ba565b61058b565b60405190151581526020015b60405180910390f35b3480156101e257600080fd5b506101eb6105dd565b6040516101cd919061212f565b34801561020457600080fd5b50610218610213366004612142565b61066f565b6040516001600160a01b0390911681526020016101cd565b34801561023c57600080fd5b5061025061024b366004612177565b6106fc565b005b34801561025e57600080fd5b5061025061026d366004612270565b610812565b34801561027e57600080fd5b5061025061028d3660046122df565b61085b565b34801561029e57600080fd5b506102186102ad36600461231b565b61088c565b3480156102be57600080fd5b506102506102cd3660046122df565b6108a4565b3480156102de57600080fd5b506102f26102ed36600461235e565b6108bf565b60405160ff90911681526020016101cd565b34801561031057600080fd5b5061025061031f366004612391565b610a15565b6102506103323660046123c6565b610a56565b34801561034357600080fd5b50610218610352366004612142565b610ceb565b34801561036357600080fd5b50610377610372366004612468565b610d62565b6040519081526020016101cd565b34801561039157600080fd5b50610250610de9565b3480156103a657600080fd5b506000546001600160a01b0316610218565b3480156103c457600080fd5b506103d86103d3366004612142565b610e1f565b6040516101cd959493929190612483565b3480156103f557600080fd5b506101eb610f65565b34801561040a57600080fd5b506102506104193660046124c6565b610f74565b34801561042a57600080fd5b506101c1610439366004612502565b611039565b34801561044a57600080fd5b506101eb61045936600461231b565b6110d6565b34801561046a57600080fd5b5061025061047936600461251d565b611211565b34801561048a57600080fd5b50610250610499366004612564565b6112d4565b3480156104aa57600080fd5b506101eb6104b9366004612142565b611306565b3480156104ca57600080fd5b506101eb6104d9366004612142565b6113d1565b3480156104ea57600080fd5b506104fe6104f9366004612142565b6114f2565b6040805161ffff909416845260ff92831660208501529116908201526060016101cd565b34801561052e57600080fd5b506101c161053d3660046125d4565b6001600160a01b03918216600090815260066020908152604080832093909416825291909152205460ff1690565b34801561057757600080fd5b50610250610586366004612468565b6116a3565b60006001600160e01b031982166380ac58cd60e01b14806105bc57506001600160e01b03198216635b5e139f60e01b145b806105d757506301ffc9a760e01b6001600160e01b03198316145b92915050565b6060600180546105ec906125fe565b80601f0160208091040260200160405190810160405280929190818152602001828054610618906125fe565b80156106655780601f1061063a57610100808354040283529160200191610665565b820191906000526020600020905b81548152906001019060200180831161064857829003601f168201915b5050505050905090565b600061067a82611744565b6106e05760405162461bcd60e51b815260206004820152602c60248201527f4552433732313a20617070726f76656420717565727920666f72206e6f6e657860448201526b34b9ba32b73a103a37b5b2b760a11b60648201526084015b60405180910390fd5b506000908152600560205260409020546001600160a01b031690565b600061070782610ceb565b9050806001600160a01b0316836001600160a01b031614156107755760405162461bcd60e51b815260206004820152602160248201527f4552433732313a20617070726f76616c20746f2063757272656e74206f776e656044820152603960f91b60648201526084016106d7565b336001600160a01b03821614806107915750610791813361053d565b6108035760405162461bcd60e51b815260206004820152603860248201527f4552433732313a20617070726f76652063616c6c6572206973206e6f74206f7760448201527f6e6572206e6f7220617070726f76656420666f7220616c6c000000000000000060648201526084016106d7565b61080d8383611761565b505050565b6108256108208585856117cf565b611744565b6108415760405162461bcd60e51b81526004016106d790612639565b61085561084f8585856117cf565b82611211565b50505050565b6108653382611857565b6108815760405162461bcd60e51b81526004016106d790612663565b61080d83838361193d565b600061089c6103528585856117cf565b949350505050565b61080d838383604051806020016040528060008152506112d4565b60008260ff166001111580156108d95750600c8360ff1611155b6109255760405162461bcd60e51b815260206004820152601e60248201527f6d6f6e7468206d757374206265206265747765656e203120616e64203132000060448201526064016106d7565b8161ffff166001111561097a5760405162461bcd60e51b815260206004820152601e60248201527f79656172206d75737420626520626967676572206f7220657175616c2031000060448201526064016106d7565b8260ff166001148061098f57508260ff166003145b8061099d57508260ff166005145b806109ab57508260ff166007145b806109b957508260ff166008145b806109c757508260ff16600a145b806109d557508260ff16600c145b156109e25750601f6105d7565b8260ff1660021415610a0c576109f782611039565b610a0257601c610a05565b601d5b90506105d7565b50601e92915050565b6000546001600160a01b03163314610a3f5760405162461bcd60e51b81526004016106d7906126b4565b8051610a5290600890602084019061200b565b5050565b34662386f26fc1000014610aac5760405162461bcd60e51b815260206004820152601f60248201527f636c61696d696e672061206461746520636f7374732031302066696e6e65790060448201526064016106d7565b6000806000610aba426114f2565b9250925092508261ffff168861ffff161180610aed57508261ffff168861ffff16148015610aed57508160ff168760ff16115b80610b2057508261ffff168861ffff16148015610b0f57508160ff168760ff16145b8015610b2057508060ff168660ff16115b15610b7d5760405162461bcd60e51b815260206004820152602760248201527f6120646174652066726f6d20746865206675747572652063616e27742062652060448201526618db185a5b595960ca1b60648201526084016106d7565b600080620f4240610bc68b8b8b8b8b8080601f016020809104026020016040519081016040528093929190818152602001838380828437600092019190915250611add92505050565b610bd091906126ff565b90506103e8811015610be55760079150610c60565b611770811015610bf85760069150610c60565b613e80811015610c0b5760059150610c60565b620101d0811015610c1f5760049150610c60565b62028870811015610c335760039150610c60565b620595b0811015610c475760029150610c60565b620a2990811015610c5b5760019150610c60565b600091505b610ca38a8a8a858b8b8080601f016020809104026020016040519081016040528093929190818152602001838380828437600092019190915250611b1b92505050565b600080546040516001600160a01b039091169190662386f26fc100009082818181858883f19350505050158015610cde573d6000803e3d6000fd5b5050505050505050505050565b6000818152600360205260408120546001600160a01b0316806105d75760405162461bcd60e51b815260206004820152602960248201527f4552433732313a206f776e657220717565727920666f72206e6f6e657869737460448201526832b73a103a37b5b2b760b91b60648201526084016106d7565b60006001600160a01b038216610dcd5760405162461bcd60e51b815260206004820152602a60248201527f4552433732313a2062616c616e636520717565727920666f7220746865207a65604482015269726f206164647265737360b01b60648201526084016106d7565b506001600160a01b031660009081526004602052604090205490565b6000546001600160a01b03163314610e135760405162461bcd60e51b81526004016106d7906126b4565b610e1d6000611bf1565b565b6000806000806060610e3086611744565b610e4c5760405162461bcd60e51b81526004016106d790612639565b6000868152600760209081526040808320815160a081018352815461ffff8116825260ff620100008204811695830195909552630100000081048516938201939093526401000000009092049092166060820152600182018054919291608084019190610eb8906125fe565b80601f0160208091040260200160405190810160405280929190818152602001828054610ee4906125fe565b8015610f315780601f10610f0657610100808354040283529160200191610f31565b820191906000526020600020905b815481529060010190602001808311610f1457829003601f168201915b5050509190925250508151602083015160408401516060850151608090950151929c919b5099509297509550909350505050565b6060600280546105ec906125fe565b6001600160a01b038216331415610fcd5760405162461bcd60e51b815260206004820152601960248201527f4552433732313a20617070726f766520746f2063616c6c65720000000000000060448201526064016106d7565b3360008181526006602090815260408083206001600160a01b03871680855290835292819020805460ff191686151590811790915590519081529192917f17307eab39ab6107e8899845ad3d59bd9653f200f220920489ca2b5937696c31910160405180910390a35050565b60008161ffff16600111156110905760405162461bcd60e51b815260206004820152601e60248201527f79656172206d75737420626520626967676572206f7220657175616c2031000060448201526064016106d7565b61109b600483612713565b61ffff161580156110b857506110b2606483612713565b61ffff16155b80156105d757506110cb61019083612713565b61ffff161592915050565b60606110e66108208585856117cf565b6111025760405162461bcd60e51b81526004016106d790612639565b6000600760006111138787876117cf565b81526020808201929092526040908101600020815160a081018352815461ffff8116825260ff620100008204811695830195909552630100000081048516938201939093526401000000009092049092166060820152600182018054919291608084019190611181906125fe565b80601f01602080910402602001604051908101604052809291908181526020018280546111ad906125fe565b80156111fa5780601f106111cf576101008083540402835291602001916111fa565b820191906000526020600020905b8154815290600101906020018083116111dd57829003601f168201915b505050919092525050506080015195945050505050565b61121a82611744565b6112365760405162461bcd60e51b81526004016106d790612639565b3361124083610ceb565b6001600160a01b0316146112af5760405162461bcd60e51b815260206004820152603060248201527f6f6e6c7920746865206f776e6572206f66207468697320646174652063616e2060448201526f6368616e676520697473207469746c6560801b60648201526084016106d7565b6000828152600760209081526040909120825161080d9260019092019184019061200b565b6112de3383611857565b6112fa5760405162461bcd60e51b81526004016106d790612663565b61085584848484611c41565b606061131182611744565b6113755760405162461bcd60e51b815260206004820152602f60248201527f4552433732314d657461646174613a2055524920717565727920666f72206e6f60448201526e3732bc34b9ba32b73a103a37b5b2b760891b60648201526084016106d7565b600061137f611c74565b9050600081511161139f57604051806020016040528060008152506113ca565b806113a984611c83565b6040516020016113ba929190612734565b6040516020818303038152906040525b9392505050565b60606113dc82611744565b6113f85760405162461bcd60e51b81526004016106d790612639565b6000828152600760209081526040808320815160a081018352815461ffff8116825260ff620100008204811695830195909552630100000081048516938201939093526401000000009092049092166060820152600182018054919291608084019190611464906125fe565b80601f0160208091040260200160405190810160405280929190818152602001828054611490906125fe565b80156114dd5780601f106114b2576101008083540402835291602001916114dd565b820191906000526020600020905b8154815290600101906020018083116114c057829003601f168201915b50505091909252505050608001519392505050565b60008080806115046201518086612779565b61151190620afa6c61278d565b9050600061152262023ab183612779565b905060006115338262023ab16127bc565b61153d90846127a5565b9050600061016d61155162023ab084612779565b61155d618eac85612779565b6115696105b486612779565b61157390866127a5565b61157d919061278d565b61158791906127a5565b6115919190612779565b905060006115a0606483612779565b6115ab600484612779565b6115b78461016d6127bc565b6115c1919061278d565b6115cb91906127a5565b6115d590846127a5565b9050600060996115e68360056127bc565b6115f190600261278d565b6115fb9190612779565b9050600561160a8260996127bc565b61161590600261278d565b61161f9190612779565b61162990836127a5565b61163490600161278d565b9650600a811061164e576116496009826127a5565b611659565b61165981600361278d565b975060028860ff16111561166e576000611671565b60015b60ff16611680866101906127bc565b61168a908561278d565b611694919061278d565b98505050505050509193909250565b6000546001600160a01b031633146116cd5760405162461bcd60e51b81526004016106d7906126b4565b6001600160a01b0381166117325760405162461bcd60e51b815260206004820152602660248201527f4f776e61626c653a206e6577206f776e657220697320746865207a65726f206160448201526564647265737360d01b60648201526084016106d7565b61173b81611bf1565b50565b3b151590565b6000908152600360205260409020546001600160a01b0316151590565b600081815260056020526040902080546001600160a01b0319166001600160a01b038416908117909155819061179682610ceb565b6001600160a01b03167f8c5be1e5ebec7d5bd14f71427d1e84f3dd0314c0f7b2291e5b200ac8c7c3b92560405160405180910390a45050565b60008160ff166001111580156117f457506117ea83856108bf565b60ff168260ff1611155b6117fd57600080fd5b60018260ff1660018560ff1661181391906127a5565b61181e90601f6127bc565b61182d600161ffff89166127a5565b611839906101746127bc565b611843919061278d565b61184d919061278d565b61089c91906127a5565b600061186282611744565b6118c35760405162461bcd60e51b815260206004820152602c60248201527f4552433732313a206f70657261746f7220717565727920666f72206e6f6e657860448201526b34b9ba32b73a103a37b5b2b760a11b60648201526084016106d7565b60006118ce83610ceb565b9050806001600160a01b0316846001600160a01b031614806119095750836001600160a01b03166118fe8461066f565b6001600160a01b0316145b8061089c57506001600160a01b0380821660009081526006602090815260408083209388168352929052205460ff1661089c565b826001600160a01b031661195082610ceb565b6001600160a01b0316146119b85760405162461bcd60e51b815260206004820152602960248201527f4552433732313a207472616e73666572206f6620746f6b656e2074686174206960448201526839903737ba1037bbb760b91b60648201526084016106d7565b6001600160a01b038216611a1a5760405162461bcd60e51b8152602060048201526024808201527f4552433732313a207472616e7366657220746f20746865207a65726f206164646044820152637265737360e01b60648201526084016106d7565b611a25600082611761565b6001600160a01b0383166000908152600460205260408120805460019290611a4e9084906127a5565b90915550506001600160a01b0382166000908152600460205260408120805460019290611a7c90849061278d565b909155505060008181526003602052604080822080546001600160a01b0319166001600160a01b0386811691821790925591518493918716917fddf252ad1be2c89b69c2b068fc378daa952ba7f163c4a11628f55a4df523b3ef91a4505050565b6000424486868686604051602001611afa969594939291906127db565b60408051601f19818403018152919052805160209091012095945050505050565b6000611b288686866117cf565b6040805160a08101825261ffff808a16825260ff808a1660208085019182528a83168587019081528a841660608701908152608087018b815260008a815260078552989098208751815495519351925187166401000000000264ff00000000199388166301000000029390931664ffff0000001994909716620100000262ffffff199096169716969096179390931716929092171782559251805194955091939092611bdb92600185019291019061200b565b50905050611be93382611d81565b505050505050565b600080546001600160a01b038381166001600160a01b0319831681178455604051919092169283917f8be0079c531659141344cd1fd0a4f28419497f9722a3daafe3b4186f6b6457e09190a35050565b611c4c84848461193d565b611c5884848484611d9b565b6108555760405162461bcd60e51b81526004016106d790612822565b6060600880546105ec906125fe565b606081611ca75750506040805180820190915260018152600360fc1b602082015290565b8160005b8115611cd15780611cbb81612874565b9150611cca9050600a83612779565b9150611cab565b60008167ffffffffffffffff811115611cec57611cec6121c4565b6040519080825280601f01601f191660200182016040528015611d16576020820181803683370190505b5090505b841561089c57611d2b6001836127a5565b9150611d38600a866126ff565b611d4390603061278d565b60f81b818381518110611d5857611d5861288f565b60200101906001600160f81b031916908160001a905350611d7a600a86612779565b9450611d1a565b610a52828260405180602001604052806000815250611ea5565b60006001600160a01b0384163b15611e9d57604051630a85bd0160e11b81526001600160a01b0385169063150b7a0290611ddf9033908990889088906004016128a5565b602060405180830381600087803b158015611df957600080fd5b505af1925050508015611e29575060408051601f3d908101601f19168201909252611e26918101906128e2565b60015b611e83573d808015611e57576040519150601f19603f3d011682016040523d82523d6000602084013e611e5c565b606091505b508051611e7b5760405162461bcd60e51b81526004016106d790612822565b805181602001fd5b6001600160e01b031916630a85bd0160e11b14905061089c565b50600161089c565b611eaf8383611ed8565b611ebc6000848484611d9b565b61080d5760405162461bcd60e51b81526004016106d790612822565b6001600160a01b038216611f2e5760405162461bcd60e51b815260206004820181905260248201527f4552433732313a206d696e7420746f20746865207a65726f206164647265737360448201526064016106d7565b611f3781611744565b15611f845760405162461bcd60e51b815260206004820152601c60248201527f4552433732313a20746f6b656e20616c7265616479206d696e7465640000000060448201526064016106d7565b6001600160a01b0382166000908152600460205260408120805460019290611fad90849061278d565b909155505060008181526003602052604080822080546001600160a01b0319166001600160a01b03861690811790915590518392907fddf252ad1be2c89b69c2b068fc378daa952ba7f163c4a11628f55a4df523b3ef908290a45050565b828054612017906125fe565b90600052602060002090601f016020900481019282612039576000855561207f565b82601f1061205257805160ff191683800117855561207f565b8280016001018555821561207f579182015b8281111561207f578251825591602001919060010190612064565b5061208b92915061208f565b5090565b5b8082111561208b5760008155600101612090565b6001600160e01b03198116811461173b57600080fd5b6000602082840312156120cc57600080fd5b81356113ca816120a4565b60005b838110156120f25781810151838201526020016120da565b838111156108555750506000910152565b6000815180845261211b8160208601602086016120d7565b601f01601f19169290920160200192915050565b6020815260006113ca6020830184612103565b60006020828403121561215457600080fd5b5035919050565b80356001600160a01b038116811461217257600080fd5b919050565b6000806040838503121561218a57600080fd5b6121938361215b565b946020939093013593505050565b803561ffff8116811461217257600080fd5b803560ff8116811461217257600080fd5b634e487b7160e01b600052604160045260246000fd5b600067ffffffffffffffff808411156121f5576121f56121c4565b604051601f8501601f19908116603f0116810190828211818310171561221d5761221d6121c4565b8160405280935085815286868601111561223657600080fd5b858560208301376000602087830101525050509392505050565b600082601f83011261226157600080fd5b6113ca838335602085016121da565b6000806000806080858703121561228657600080fd5b61228f856121a1565b935061229d602086016121b3565b92506122ab604086016121b3565b9150606085013567ffffffffffffffff8111156122c757600080fd5b6122d387828801612250565b91505092959194509250565b6000806000606084860312156122f457600080fd5b6122fd8461215b565b925061230b6020850161215b565b9150604084013590509250925092565b60008060006060848603121561233057600080fd5b612339846121a1565b9250612347602085016121b3565b9150612355604085016121b3565b90509250925092565b6000806040838503121561237157600080fd5b61237a836121b3565b9150612388602084016121a1565b90509250929050565b6000602082840312156123a357600080fd5b813567ffffffffffffffff8111156123ba57600080fd5b61089c84828501612250565b6000806000806000608086880312156123de57600080fd5b6123e7866121a1565b94506123f5602087016121b3565b9350612403604087016121b3565b9250606086013567ffffffffffffffff8082111561242057600080fd5b818801915088601f83011261243457600080fd5b81358181111561244357600080fd5b89602082850101111561245557600080fd5b9699959850939650602001949392505050565b60006020828403121561247a57600080fd5b6113ca8261215b565b61ffff8616815260ff8516602082015260ff8416604082015260ff8316606082015260a0608082015260006124bb60a0830184612103565b979650505050505050565b600080604083850312156124d957600080fd5b6124e28361215b565b9150602083013580151581146124f757600080fd5b809150509250929050565b60006020828403121561251457600080fd5b6113ca826121a1565b6000806040838503121561253057600080fd5b82359150602083013567ffffffffffffffff81111561254e57600080fd5b61255a85828601612250565b9150509250929050565b6000806000806080858703121561257a57600080fd5b6125838561215b565b93506125916020860161215b565b925060408501359150606085013567ffffffffffffffff8111156125b457600080fd5b8501601f810187136125c557600080fd5b6122d3878235602084016121da565b600080604083850312156125e757600080fd5b6125f08361215b565b91506123886020840161215b565b600181811c9082168061261257607f821691505b6020821081141561263357634e487b7160e01b600052602260045260246000fd5b50919050565b60208082526010908201526f1d1bdad95b881b9bdd081b5a5b9d195960821b604082015260600190565b60208082526031908201527f4552433732313a207472616e736665722063616c6c6572206973206e6f74206f6040820152701ddb995c881b9bdc88185c1c1c9bdd9959607a1b606082015260800190565b6020808252818101527f4f776e61626c653a2063616c6c6572206973206e6f7420746865206f776e6572604082015260600190565b634e487b7160e01b600052601260045260246000fd5b60008261270e5761270e6126e9565b500690565b600061ffff80841680612728576127286126e9565b92169190910692915050565b600083516127468184602088016120d7565b83519083019061275a8183602088016120d7565b01949350505050565b634e487b7160e01b600052601160045260246000fd5b600082612788576127886126e9565b500490565b600082198211156127a0576127a0612763565b500190565b6000828210156127b7576127b7612763565b500390565b60008160001904831182151516156127d6576127d6612763565b500290565b86815285602082015261ffff8516604082015260ff8416606082015260ff8316608082015260c060a0820152600061281660c0830184612103565b98975050505050505050565b60208082526032908201527f4552433732313a207472616e7366657220746f206e6f6e20455243373231526560408201527131b2b4bb32b91034b6b83632b6b2b73a32b960711b606082015260800190565b600060001982141561288857612888612763565b5060010190565b634e487b7160e01b600052603260045260246000fd5b6001600160a01b03858116825284166020820152604081018390526080606082018190526000906128d890830184612103565b9695505050505050565b6000602082840312156128f457600080fd5b81516113ca816120a456fea26469706673582212209784e7f6064b5e79b982724dae4b7653f04be2f5fcc653520d8779b8b7d5d8d364736f6c634300080900334552433732313a207472616e7366657220746f206e6f6e204552433732315265",
  "immutableReferences": {},
  "source": "// SPDX-License-Identifier: MIT\npragma solidity >=0.4.22 <0.9.0;\n\n// library for secure smart contract development\nimport \"@openzeppelin/contracts/token/ERC721/ERC721.sol\";\n// provides a basic access control mechanism, where there is an account (an owner) that can be granted exclusive access (i.e. who can mint tokens, vote on proposals, freeze transfers, etc) to specific functions. By default, the owner account will be the one that deploys the contract.\nimport \"@openzeppelin/contracts/access/Ownable.sol\";\n\ncontract Date is Ownable, ERC721 {\n\n    struct Metadata {\n        uint16 year;\n        uint8 month;\n        uint8 day;\n        uint8 color;\n        string title;\n    }\n\n    // we are mapping the token id to the metadata. T his is how we store data inside the blockchain.\n    mapping(uint256 => Metadata) id_to_date;\n\n    string private _currentBaseURI;\n\n    // defined our token name and token symbol \n    // the constructor is executed when we deploy the smart contract to the blockchain\n    // here we are executing several Date tokens for my wallet\n    constructor() ERC721(\"Date\", \"DATE\") {\n        setBaseURI(\"http://localhost/token/\");\n\n        // Origin is the global variable in Solidity which returns the address of the account that sent the transaction\n        mint(1, 1, 1, 4, \"ORIGIN\");\n        (uint16 now_year, uint8 now_month, uint8 now_day) = timestampToDate(block.timestamp);\n        mint(now_year, now_month, now_day, 4, \"Date Token Start\");\n        mint(1920, 8, 26, 6, \"About time women got to vote!\");\n        mint(2005, 10, 29, 5, \"All cats reunite!\");\n        mint(1999, 11, 15, 1, \"Your neopet is dying...\");\n        mint(2005, 4, 23, 2, \"Me at the zoo\");\n        mint(1969, 7, 20, 3, \"One small step for man\");\n        mint(1977, 7, 15, 0, \"I Love New York\");\n        mint(1903, 12, 17, 7, \"Off to the sky!\");\n    }\n\n    function setBaseURI(string memory baseURI) public onlyOwner {\n        _currentBaseURI = baseURI;\n    }\n\n    function _baseURI() internal view virtual override returns (string memory) {\n        return _currentBaseURI;\n    }\n\n    // will create a new Date token\n    // since it's defined as internal, only the smart contract itself can call it \n    function mint(uint16 year, uint8 month, uint8 day, uint8 color, string memory title) internal {\n        uint256 tokenId = id(year, month, day);\n        \n        id_to_date[tokenId] = Metadata(year, month, day, color, title);\n        _safeMint(msg.sender, tokenId);\n    }\n\n    // this function gets called to create a Date token for user through the dApp (external)\n    // takes same parameters as mint function except color because the color is randomly chosen \n    // since we defined as payable, user will need to pay a fee in order to create this Date token (cost is defined as 10 finney)\n    function claim(uint16 year, uint8 month, uint8 day, string calldata title) external payable {\n        // if user does not pay the 10 finney fee to create the token, then they will get the message below\n        require(msg.value == 0.01 ether, \"claiming a date costs 10 finney\");\n\n        // we check the year, month, and day parameters for validity\n        (uint16 now_year, uint8 now_month, uint8 now_day) = timestampToDate(block.timestamp);\n        if ((year > now_year) || \n            (year == now_year && month > now_month) || \n            (year == now_year && month == now_month && day > now_day)) {\n            revert(\"a date from the future can't be claimed\");\n        }\n\n        // we generate a random color based off the below probabilities \n        uint8 color;\n        uint256 r = pseudoRNG(year, month, day, title) % 1000000;\n        if (r < 1000) {\n            color = 7;\n        } else if (r < 6000) {\n            color = 6;\n        } else if (r < 16000) {\n            color = 5;\n        } else if (r < 66000) {\n            color = 4;\n        } else if (r < 166000) {\n            color = 3;\n        } else if (r < 366000) {\n            color = 2;\n        } else if (r < 666000) {\n            color = 1;\n        } else {\n            color = 0;\n        }\n\n        // we now add them to the mint function\n        mint(year, month, day, color, title);\n        // we transfer the 10 finney to my wallet\n        payable(owner()).transfer(0.01 ether);\n    }\n\n    function ownerOf(uint16 year, uint8 month, uint8 day) public view returns(address) {\n        // the ownerOf() function finds the provided token ID in the _tokenOwner map and returns the address of its owner\n        return ownerOf(id(year, month, day));\n    }\n\n    function id(uint16 year, uint8 month, uint8 day) pure internal returns(uint256) {\n        // numDaysInMonth is a function we have defined \n        require(1 <= day && day <= numDaysInMonth(month, year));\n        return (uint256(year)-1)*372 + (uint256(month)-1)*31 + uint256(day)-1;\n    }\n    \n    // we can get a Date token\n    // reads the metadata that is associate to a Date token ID \n    function get(uint256 tokenId) external view returns (uint16 year, uint8 month, uint8 day, uint8 color, string memory title) {\n        require(_exists(tokenId), \"token not minted\");\n        Metadata memory date = id_to_date[tokenId];\n        year = date.year;\n        month = date.month;\n        day = date.day;\n        color = date.color;\n        title = date.title;\n    }\n\n    // gets the title of the Date token by its token ID\n    function titleOf(uint256 tokenId) external view returns (string memory) {\n        require(_exists(tokenId), \"token not minted\");\n        Metadata memory date = id_to_date[tokenId];\n        return date.title;\n    }\n\n    // gets the title of the Date token by the year, month, and day\n    function titleOf(uint16 year, uint8 month, uint8 day) external view returns (string memory) {\n        require(_exists(id(year, month, day)), \"token not minted\");\n        Metadata memory date = id_to_date[id(year, month, day)];\n        return date.title;\n    }\n\n    // changes the title of the Date token if it exists\n    // since we are using a external modifier, this function can only be called \n    function changeTitleOf(uint16 year, uint8 month, uint8 day, string memory title) external {\n        require(_exists(id(year, month, day)), \"token not minted\");\n        changeTitleOf(id(year, month, day), title);\n    }\n\n    // changes the title of the Date token \n    // this is only possible if the owner of the Date token is calling this endpoint \n    function changeTitleOf(uint256 tokenId, string memory title) public {\n        require(_exists(tokenId), \"token not minted\");\n        require(ownerOf(tokenId) == msg.sender, \"only the owner of this date can change its title\");\n        id_to_date[tokenId].title = title;\n    }\n\n    // helper function to determine if leap year\n    function isLeapYear(uint16 year) public pure returns (bool) {\n        require(1 <= year, \"year must be bigger or equal 1\");\n        return (year % 4 == 0) \n            && (year % 100 == 0)\n            && (year % 400 == 0);\n    }\n\n    // helper function to determine the number of days in a given month & year, given that a correct month and year are provided as parameters\n    function numDaysInMonth(uint8 month, uint16 year) public pure returns (uint8) {\n        require(1 <= month && month <= 12, \"month must be between 1 and 12\");\n        require(1 <= year, \"year must be bigger or equal 1\");\n\n        if (month == 1 || month == 3 || month == 5 || month == 7 || month == 8 || month == 10 || month == 12) {\n            return 31;\n        }\n        else if (month == 2) {\n            return isLeapYear(year) ? 29 : 28;\n        }\n        else {\n            return 30;\n        }\n    }\n\n    // returns a year, month, and day from the timestamp provided as a parameter\n    function timestampToDate(uint timestamp) public pure returns (uint16 year, uint8 month, uint8 day) {\n        uint z = timestamp / 86400 + 719468;\n        uint era = (z >= 0 ? z : z - 146096) / 146097;\n        uint doe = z - era * 146097;\n        uint yoe = (doe - doe/1460 + doe/36524 - doe/146096) / 365;\n        uint doy = doe - (365*yoe + yoe/4 - yoe/100);\n        uint mp = (5*doy + 2)/153;\n\n        day = uint8(doy - (153*mp+2)/5 + 1);\n        month = mp < 10 ? uint8(mp + 3) : uint8(mp - 9);\n        year = uint16(yoe + era * 400 + (month <= 2 ? 1 : 0));\n    }\n\n    // keccak256: a cryptographic function built into solidity. This function takes in any amount of inputs and converts it to a unique 32 byte hash \n    // block.timestamp: the timestamp of the current block in seconds since the epoch\n    // block.difficulty: the difficulty of the current block\n    function pseudoRNG(uint16 year, uint8 month, uint8 day, string memory title) internal view returns (uint256) {\n        return uint256(keccak256(abi.encode(block.timestamp, block.difficulty, year, month, day, title)));\n    }\n}",
  "sourcePath": "/Users/karina/Desktop/nfts/contracts/Date.sol",
  "compiler": {
    "name": "solc",
    "version": "0.8.9+commit.e5eed63a.Emscripten.clang"
  },
  "schemaVersion": "3.4.3",
  "updatedAt": "2021-10-13T03:37:27.336Z",
  "networkType": "ethereum",
  "devdoc": {
    "kind": "dev",
    "methods": {
      "approve(address,uint256)": {
        "details": "See {IERC721-approve}."
      },
      "balanceOf(address)": {
        "details": "See {IERC721-balanceOf}."
      },
      "getApproved(uint256)": {
        "details": "See {IERC721-getApproved}."
      },
      "isApprovedForAll(address,address)": {
        "details": "See {IERC721-isApprovedForAll}."
      },
      "name()": {
        "details": "See {IERC721Metadata-name}."
      },
      "owner()": {
        "details": "Returns the address of the current owner."
      },
      "ownerOf(uint256)": {
        "details": "See {IERC721-ownerOf}."
      },
      "renounceOwnership()": {
        "details": "Leaves the contract without owner. It will not be possible to call `onlyOwner` functions anymore. Can only be called by the current owner. NOTE: Renouncing ownership will leave the contract without an owner, thereby removing any functionality that is only available to the owner."
      },
      "safeTransferFrom(address,address,uint256)": {
        "details": "See {IERC721-safeTransferFrom}."
      },
      "safeTransferFrom(address,address,uint256,bytes)": {
        "details": "See {IERC721-safeTransferFrom}."
      },
      "setApprovalForAll(address,bool)": {
        "details": "See {IERC721-setApprovalForAll}."
      },
      "supportsInterface(bytes4)": {
        "details": "See {IERC165-supportsInterface}."
      },
      "symbol()": {
        "details": "See {IERC721Metadata-symbol}."
      },
      "tokenURI(uint256)": {
        "details": "See {IERC721Metadata-tokenURI}."
      },
      "transferFrom(address,address,uint256)": {
        "details": "See {IERC721-transferFrom}."
      },
      "transferOwnership(address)": {
        "details": "Transfers ownership of the contract to a new account (`newOwner`). Can only be called by the current owner."
      }
    },
    "version": 1
  },
  "userdoc": {
    "kind": "user",
    "methods": {},
    "version": 1
  }
}